:100000000C945D000C9485000C9485000C94850084
:100010000C9485000C9485000C9485000C9485004C
:100020000C9485000C9485000C9485000C9485003C
:100030000C9485000C9485000C9485000C9485002C
:100040000C947B020C9485000C94EB020C94C5027A
:100050000C9485000C9485000C9485000C9485000C
:100060000C9485000C94850000000008000201003B
:100070000003040700000000000000000000000072
:10008000250028002B0000000000240027002A0083
:10009000040404040404040402020202020203032E
:1000A0000303030301020408102040800102040836
:1000B00010200102040810202C0411241FBECFEFD1
:1000C000D8E0DEBFCDBF11E0A0E0B1E0E2ECF8E0A7
:1000D00002C005900D92AA37B107D9F722E0AAE72E
:1000E000B1E001C01D92A332B207E1F710E0CDE507
:1000F000D0E004C02197FE010E945904CC35D107FD
:10010000C9F70E941D030C945F040C94000090E05A
:10011000FC01EC55FF4F249180579F4FFC018491C7
:10012000882399F090E0880F991FFC01EA57FF4F50
:10013000A591B491FC01E458FF4F859194918FB73C
:10014000F894EC91E22BEC938FBF089590E0FC01C2
:10015000E859FF4F2491FC01EC55FF4F3491FC010D
:10016000E057FF4FE491EE23C9F0222339F023300A
:1001700001F1A8F4213019F1223029F1F0E0EE0F5D
:10018000FF1FE458FF4FA591B4918FB7F894EC91FD
:10019000611126C030953E233C938FBF08952730D0
:1001A000A9F02830C9F0243049F7809180008F7D74
:1001B00003C0809180008F7780938000DFCF84B56B
:1001C0008F7784BDDBCF84B58F7DFBCF8091B0006E
:1001D0008F778093B000D2CF8091B0008F7DF9CF20
:1001E0003E2BDACFCF93DF93EC0189E00E948700AA
:1001F000209731F460E089E0DF91CF910C94A60064
:10020000CF3FD10511F461E0F6CFE1E7F0E0E491F2
:10021000E33029F140F4E130B1F0E230D9F0C038F8
:10022000D1058CF7E7CFE73021F1E83051F1E43028
:10023000B1F780918000806280938000D0938B0022
:10024000C0938A0004C084B5806884BDC7BDDF91B7
:10025000CF91089584B5806284BDC8BDF8CF8091E8
:100260008000806880938000D0938900C0938800CC
:10027000EECF8091B00080688093B000C093B3004F
:10028000E6CF8091B00080628093B000C093B4004C
:10029000DECF3FB7F89480911F0290912002A09189
:1002A0002102B091220226B5A89B05C02F3F19F06C
:1002B0000196A11DB11D3FBFBA2FA92F982F8827E6
:1002C000BC01CD01620F711D811D911D42E0660FC1
:1002D000771F881F991F4A95D1F70895AF92BF9253
:1002E000CF92DF92EF92FF920F931F93CF93DF9302
:1002F0006C017B018B01040F151FEB015E01AE1831
:10030000BF08C017D10759F06991D601ED91FC9152
:100310000190F081E02DC6010995892B79F7C5017F
:10032000DF91CF911F910F91FF90EF90DF90CF90D1
:10033000BF90AF900895FC01538D448D252F30E080
:10034000842F90E0821B930B541710F0CF960895E2
:1003500001970895FC01918D828D981761F0A28D0F
:10036000AE0FBF2FB11D5D968C91928D9F5F9F73D5
:10037000928F90E008958FEF9FEF0895FC01918D8B
:10038000828D981731F0828DE80FF11D858D90E0F8
:1003900008958FEF9FEF0895FC01918D228D892F95
:1003A00090E0805C9F4F821B91098F73992708957D
:1003B0008DE791E00E94CC0121E0892B09F420E037
:1003C000822F089580E090E0892B29F00E94D801C7
:1003D00081110C9400000895FC01A48DA80FB92F81
:1003E000B11DA35ABF4F2C91848D90E001968F735D
:1003F0009927848FA689B7892C93A089B1898C917C
:10040000837080648C93938D848D981306C00288CA
:10041000F389E02D80818F7D80830895EF92FF9294
:100420000F931F93CF93DF93EC0181E0888F9B8D17
:100430008C8D98131AC0E889F989808185FF15C0D1
:100440009FB7F894EE89FF896083E889F9898081F4
:100450008370806480839FBF81E090E0DF91CF91C3
:100460001F910F91FF90EF900895F62E0B8D10E0E5
:100470000F5F1F4F0F731127E02E8C8D8E110CC054
:100480000FB607FCFACFE889F989808185FFF5CF9F
:10049000CE010E94EC01F1CFEB8DEC0FFD2FF11D91
:1004A000E35AFF4FF0829FB7F8940B8FEA89FB89DC
:1004B00080818062CFCFCF93DF93EC01888D88233A
:1004C000B9F0AA89BB89E889F9898C9185FD03C0B7
:1004D000808186FD0DC00FB607FCF7CF8C9185FF9C
:1004E000F2CF808185FFEDCFCE010E94EC01E9CFF4
:1004F000DF91CF9108951F920F920FB60F921124A2
:100500002F933F938F939F93AF93BF9380911B0241
:1005100090911C02A0911D02B0911E0230911A020E
:1005200023E0230F2D3758F50196A11DB11D20930F
:100530001A0280931B0290931C02A0931D02B09399
:100540001E0280911F0290912002A0912102B09181
:1005500022020196A11DB11D80931F0290932002DB
:10056000A0932102B0932202BF91AF919F918F91EE
:100570003F912F910F900FBE0F901F90189526E876
:10058000230F0296A11DB11DD2CF1F920F920FB65D
:100590000F9211242F933F934F935F936F937F9309
:1005A0008F939F93AF93BF93EF93FF938DE791E06A
:1005B0000E94EC01FF91EF91BF91AF919F918F91BC
:1005C0007F916F915F914F913F912F910F900FBE4F
:1005D0000F901F9018951F920F920FB60F92112433
:1005E0002F938F939F93EF93FF93E0918D01F09161
:1005F0008E018081E0919301F091940182FD1BC0F6
:100600009081809196018F5F8F732091970182175F
:1006100041F0E0919601F0E0E358FE4F958F809312
:100620009601FF91EF919F918F912F910F900FBEA7
:100630000F901F9018958081F4CF789484B58260D4
:1006400084BD84B5816084BD85B5826085BD85B576
:10065000816085BD80916E00816080936E001092F4
:10066000810080918100826080938100809181006F
:100670008160809381008091800081608093800000
:100680008091B10084608093B1008091B00081605E
:100690008093B00080917A00846080937A0080918A
:1006A0007A00826080937A0080917A0081608093E2
:1006B0007A0080917A00806880937A001092C1005D
:1006C000E0918D01F0918E0182E08083E0918901BB
:1006D000F0918A011082E0918B01F0918C018FECF6
:1006E000808310929501E0919101F091920186E052
:1006F0008083E0918F01F0919001808180618083FF
:10070000E0918F01F0919001808188608083E09179
:100710008F01F0919001808180688083E0918F014A
:10072000F091900180818F7D808388E00E94870016
:1007300089E00E94870044E650E062E171E08DE7C5
:1007400091E00E946E0142E050E067E771E08DE7C2
:1007500091E00E946E0100E010E08DE791E00E94C0
:10076000CC01892B09F467C08DE791E00E94AA01B2
:10077000F82E80937C01C0917A01D0917B01CF3F0C
:10078000D10509F078F424E6821361C06996D0930C
:100790007B01C0937A0160E088E00E94A600CE0150
:1007A0000E94F200C0917A01D0917B01CF3FD10528
:1007B00069F064F08FEF90E00E94F20021E6F212FF
:1007C00005C06997D0937B01C0937A01C0917A01EB
:1007D000D0917B01D7FF0BC0CE010E94F20084E6CE
:1007E000F81205C06996D0937B01C0937A010E94EC
:1007F00049014B015C018AE0C82ED12CE12CF12C7F
:100800000E944901681979098A099B09683E734069
:1008100081059105A8F321E0C21AD108E108F10889
:1008200088EE880E83E0981EA11CB11CC114D1046F
:10083000E104F10429F70115110509F48ECF0E9496
:10084000D801882309F489CF0E94000086CF81E671
:10085000F812A8CF69979BCFEDE7F1E013821282DF
:1008600088EE93E0A0E0B0E084839583A683B7830D
:1008700084E091E09183808385EC90E09587848784
:1008800084EC90E09787868780EC90E0918B808B5A
:1008900081EC90E0938B828B82EC90E0958B848B43
:1008A00086EC90E0978B868B118E128E138E148EB1
:1008B0000895EE0FFF1F0590F491E02D0994F89430
:0208C000FFCF68
:1008C200000000000E026E019B015B02CC01AA0136
:1008D200BE0150726573696F6E65207265706574D2
:1008E200696461732076656365732041206F2044DB
:1008F20020706172612061756D656E746172206F26
:10090200206469736D696E756972206C6120766509
:100912006C6F6369646164206465206769726F202B
:10092200284769726F2073656E7469646F20686FFF
:0A093200726172696F29000D0A005E
:00000001FF
