:020000040000FA
:100000000C945D000C9485000C9485000C94850084
:100010000C9485000C9485000C9485000C9485004C
:100020000C9485000C9485000C9485000C94A70218
:100030000C9485000C9485000C9485000C9485002C
:100040000C9405020C9485000C9475020C944F02DC
:100050000C9485000C9485000C9485000C9485000C
:100060000C9485000C9485000000000024002700FB
:100070002A0000000000250028002B0004040404CE
:100080000404040402020202020203030303030342
:10009000010204081020408001020408102001021F
:1000A00004081020000000080002010000030407FB
:1000B0000000000000000000630311241FBECFEF0A
:1000C000D8E0DEBFCDBF11E0A0E0B1E0E8EFFBE09B
:1000D00002C005900D92A435B107D9F722E0A4E53E
:1000E000B1E001C01D92A332B207E1F710E0CDE507
:1000F000D0E004C02197FE010E94F405CC35D10761
:10010000C9F70E94C0030C94FA050C94000090E01B
:10011000FC01EC55FF4F2491FC01E057FF4F349157
:10012000FC01E458FF4FE491EE23C9F0222339F09B
:10013000233001F1A8F4213019F1223029F1F0E047
:10014000EE0FFF1FEE58FF4FA591B4918FB7F894B3
:10015000EC91611126C030953E233C938FBF0895EA
:100160002730A9F02830C9F0243049F78091800069
:100170008F7D03C0809180008F7780938000DFCFD8
:1001800084B58F7784BDDBCF84B58F7DFBCF809125
:10019000B0008F778093B000D2CF8091B0008F7D78
:1001A000F9CF3E2BDACF3FB7F89480915A01909166
:1001B0005B01A0915C01B0915D0126B5A89B05C0D3
:1001C0002F3F19F00196A11DB11D3FBFBA2FA92FD6
:1001D000982F8827BC01CD01620F711D811D911DD3
:1001E00042E0660F771F881F991F4A95D1F708953F
:1001F000AF92BF92CF92DF92EF92FF920F931F9335
:10020000CF93DF936C017B018B01040F151FEB0172
:100210005E01AE18BF08C017D10759F06991D60129
:10022000ED91FC910190F081E02DC6010995892B9B
:1002300079F7C501DF91CF911F910F91FF90EF905A
:10024000DF90CF90BF90AF900895FC01538D448D07
:10025000252F30E0842F90E0821B930B541710F071
:10026000CF96089501970895FC01918D828D98177E
:1002700061F0A28DAE0FBF2FB11D5D968C91928D56
:100280009F5F9F73928F90E008958FEF9FEF089587
:10029000FC01918D828D981731F0828DE80FF11D50
:1002A000858D90E008958FEF9FEF0895FC01918D6B
:1002B000228D892F90E0805C9F4F821B91098F7364
:1002C000992708958EE591E00E94560121E0892B3F
:1002D00009F420E0822F089580E090E0892B29F036
:1002E0000E94620181110C9400000895FC01A48D0C
:1002F000A80FB92FB11DA35ABF4F2C91848D90E048
:1003000001968F739927848FA689B7892C93A0892A
:10031000B1898C91837080648C93938D848D9813B4
:1003200006C00288F389E02D80818F7D8083089547
:10033000EF92FF920F931F93CF93DF93EC0181E035
:10034000888F9B8D8C8D98131AC0E889F9898081DC
:1003500085FF15C09FB7F894EE89FF896083E8890F
:10036000F98980818370806480839FBF81E090E001
:10037000DF91CF911F910F91FF90EF900895F62E8E
:100380000B8D10E00F5F1F4F0F731127E02E8C8D28
:100390008E110CC00FB607FCFACFE889F98980816D
:1003A00085FFF5CFCE010E947601F1CFEB8DEC0FEA
:1003B000FD2FF11DE35AFF4FF0829FB7F8940B8F8A
:1003C000EA89FB8980818062CFCFCF93DF93EC01F4
:1003D000888D8823B9F0AA89BB89E889F9898C912D
:1003E00085FD03C0808186FD0DC00FB607FCF7CFE9
:1003F0008C9185FFF2CF808185FFEDCFCE010E94E9
:100400007601E9CFDF91CF9108951F920F920FB639
:100410000F9211242F933F938F939F93AF93BF938A
:100420008091560190915701A0915801B0915901C6
:100430003091550123E0230F2D3758F50196A11D6A
:10044000B11D209355018093560190935701A093BD
:100450005801B093590180915A0190915B01A0918C
:100460005C01B0915D010196A11DB11D80935A01FF
:1004700090935B01A0935C01B0935D01BF91AF913C
:100480009F918F913F912F910F900FBE0F901F90D2
:10049000189526E8230F0296A11DB11DD2CF1F92F9
:1004A0000F920FB60F9211242F933F934F935F93A8
:1004B0006F937F938F939F93AF93BF93EF93FF932C
:1004C0008EE591E00E947601FF91EF91BF91AF918F
:1004D0009F918F917F916F915F914F913F912F915C
:1004E0000F900FBE0F901F9018951F920F920FB68E
:1004F0000F9211242F938F939F93EF93FF93E0918B
:100500006E01F0916F018081E0917401F0917501AD
:1005100082FD1BC09081809177018F5F8F73209146
:100520007801821741F0E0917701F0E0E25AFE4F46
:10053000958F80937701FF91EF919F918F912F91EC
:100540000F900FBE0F901F9018958081F4CF1F92CF
:100550000F920FB60F9211242F933F934F935F93F7
:100560006F937F938F939F93AF93BF93CF93DF93BB
:10057000EF93FF9380915401C0911F02D0E087FF59
:1005800024C01092850010928400809154018F5FE6
:100590008093540180915401082E000C990B8C1704
:1005A0009D0724F4809154018C30C4F18091840023
:1005B00090918500049680349C4908F47AC080911B
:1005C000840090918500049676C080915401082E95
:1005D000000C990B8C179D07C4F6E09154018E2FE7
:1005E000EE0F990BFC01EE0FFF1FE80FF91FE5500E
:1005F000FE4F808186FFC9CFE09154018E2FEE0F10
:10060000990BFC01EE0FFF1FE80FF91FE550FE4F9D
:10061000808160E08F730E948700B7CF20918400B3
:1006200030918500E09154018E2FEE0F990BFC0163
:10063000EE0FFF1FE80FF91FE550FE4F81819281F9
:10064000820F931F9093890080938800E09154015A
:100650008E2FEE0F990BFC01EE0FFF1FE80FF91F15
:10066000E550FE4F808186FF11C0E09154018E2F2E
:10067000EE0F990BFC01EE0FFF1FE80FF91FE5507D
:10068000FE4F808161E08F730E948700FF91EF91A0
:10069000DF91CF91BF91AF919F918F917F916F919A
:1006A0005F914F913F912F910F900FBE0F901F9030
:1006B000189580E49CE990938900809388008FEFDF
:1006C00080935401E3CF109261011092600188EE93
:1006D00093E0A0E0B0E08093620190936301A09367
:1006E0006401B093650186E091E090935F0180938F
:1006F0005E0185EC90E090936B0180936A0184EC3D
:1007000090E090936D0180936C0180EC90E0909369
:100710006F0180936E0181EC90E090937101809362
:10072000700182EC90E0909373018093720186ECEB
:1007300090E090937501809374011092770110926C
:1007400078011092790110927A0180911F028C3009
:1007500098F491E0980F90931F028093200290E00C
:10076000FC01EE0FFF1FE80FF91FE550FE4F88EB6D
:100770009BE09283818308958FEF809320020895F8
:10078000789484B5826084BD84B5816084BD85B56C
:10079000826085BD85B5816085BD80916E00816078
:1007A00080936E001092810080918100826080931E
:1007B0008100809181008160809381008091800020
:1007C0008160809380008091B10084608093B1004B
:1007D0008091B00081608093B00080917A00846045
:1007E00080937A0080917A00826080937A00809171
:1007F0007A00816080937A0080917A00806880938B
:100800007A001092C100E0916E01F0916F0182E0D8
:100810008083E0916A01F0916B011082E0916C019C
:10082000F0916D018FEC808310927601E09172015E
:10083000F091730186E08083E0917001F091710185
:10084000808180618083E0917001F09171018081ED
:1008500088608083E0917001F091710180818068EF
:100860008083E0917001F091710180818F7D8083A0
:100870004FE350E064E171E08EE591E00E94F80002
:10088000809120028C3008F068C0E9E9F0E0249102
:10089000E5E8F0E08491882399F090E0880F991FB3
:1008A000FC01E859FF4FA591B491FC01EE58FF4FB0
:1008B000859194918FB7F894EC91E22BEC938FBFD4
:1008C00080912002282F30E0F901EE0FFF1FE20F88
:1008D000F31FE550FE4F9081907C996090831092B9
:1008E0002102109222022CE0622F0E94E805829FD2
:1008F000B001112430E020E0AB01420F531FFA0198
:10090000EE0FFF1FE40FF51FE550FE4F908196FD9F
:1009100016C02F5F3F4F2C30310571F781110FC08A
:100920001092800082E080938100109285001092E6
:100930008400B19A80916F00826080936F00E09193
:1009400020028E2F90E0FC01EE0FFF1FE80FF91F31
:10095000E550FE4F80818064808308E810E0C8E5A0
:10096000D2E0A4EB4A2E512C612C712CB0E02B2E3E
:10097000B0E03B2E8EE591E00E945601892B09F4F0
:10098000A6C08EE591E00E943401209100013091D3
:100990000101813609F4A7C0843609F4AFC0A091E3
:1009A0000001B0910101A03222E0B207BCF5209114
:1009B00021026801C21AD10827FDD394CC0CDD1C9A
:1009C000CC0CDD1C0D2C000CEE08FF08209122023F
:1009D000CE01821B910927FD93959C01220F331FA5
:1009E000220F331F032E000C440B550B2C193D090D
:1009F0004E095F09A53BB10514F0A4EBB0E0B7FFC9
:100A000002C0B0E0A0E00E94AF05A30192010E94E5
:100A10008505C20ED31EE41EF51ED601E09120020C
:100A2000EC3088F520912102C801821B910927FD35
:100A300093959C01220F331F220F331FA217B30778
:100A400084F020912202CE01821B910927FD93950B
:100A50009C01220F331F220F331FA217B3070CF480
:100A60009D0122503109220F331F4FB7F8948E2F6A
:100A700090E0FC01EE0FFF1FE80FF91FE550FE4F5D
:100A8000328321834FBF0E94D3004B015C018FE072
:100A9000C82ED12CE12CF12C0E94D30068197909C1
:100AA0008A099B09683E734081059105A8F391E08E
:100AB000C91AD108E108F10828EE820E23E0921E3F
:100AC000A11CB11CC114D104E104F10429F72114C3
:100AD000310409F44FCF0E946201882309F44ACF00
:100AE0000E94000047CF121613060CF058CF235077
:100AF0003109309301012093000151CF243B31058E
:100B00000CF04DCF2D5F3F4FF4CF052E97FB1EF419
:100B100000940E949C0557FD07D00E94B70507FC72
:100B200003D04EF40C949C0550954095309521953A
:100B30003F4F4F4F5F4F0895909580957095619509
:100B40007F4F8F4F9F4F08950E94D905A59F900D0D
:100B5000B49F900DA49F800D911D11240895B7FF9F
:100B60000C94A4050E94A405821B930B0895A1E296
:100B70001A2EAA1BBB1BFD010DC0AA1FBB1FEE1F17
:100B8000FF1FA217B307E407F50720F0A21BB30B62
:100B9000E40BF50B661F771F881F991F1A9469F7DE
:100BA00060957095809590959B01AC01BD01CF013A
:100BB0000895A29FB001B39FC001A39F700D811D36
:100BC0001124911DB29F700D811D1124911D089556
:100BD000991B79E004C0991F961708F0961B881F8F
:100BE0007A95C9F780950895EE0FFF1F0590F4914F
:100BF000E02D0994F894FFCF5A00000000009801FE
:100C0000F8002501E501560134014801436F6E7477
:100C1000726F6C65206C6120706F736963696F6EB1
:100C20002064656C20736572766F20636F6E20415F
:100C30002028697A71756965726461292079204478
:0C0C4000202864657265636861290A0061
:107E0000112484B714BE81FFF0D085E080938100F7
:107E100082E08093C00088E18093C10086E0809377
:107E2000C20080E18093C4008EE0C9D0259A86E02C
:107E300020E33CEF91E0309385002093840096BBD3
:107E4000B09BFECF1D9AA8958150A9F7CC24DD24C4
:107E500088248394B5E0AB2EA1E19A2EF3E0BF2EE7
:107E6000A2D0813461F49FD0082FAFD0023811F036
:107E7000013811F484E001C083E08DD089C08234E0
:107E800011F484E103C0853419F485E0A6D080C0E4
:107E9000853579F488D0E82EFF2485D0082F10E0AE
:107EA000102F00270E291F29000F111F8ED06801E7
:107EB0006FC0863521F484E090D080E0DECF843638
:107EC00009F040C070D06FD0082F6DD080E0C81688
:107ED00080E7D80618F4F601B7BEE895C0E0D1E017
:107EE00062D089930C17E1F7F0E0CF16F0E7DF06D8
:107EF00018F0F601B7BEE89568D007B600FCFDCFD4
:107F0000A601A0E0B1E02C9130E011968C91119780
:107F100090E0982F8827822B932B1296FA010C0160
:107F200087BEE89511244E5F5F4FF1E0A038BF0790
:107F300051F7F601A7BEE89507B600FCFDCF97BE46
:107F4000E89526C08437B1F42ED02DD0F82E2BD052
:107F50003CD0F601EF2C8F010F5F1F4F84911BD097
:107F6000EA94F801C1F70894C11CD11CFA94CF0C13
:107F7000D11C0EC0853739F428D08EE10CD085E9AC
:107F80000AD08FE07ACF813511F488E018D01DD067
:107F900080E101D065CF982F8091C00085FFFCCF94
:107FA0009093C60008958091C00087FFFCCF809118
:107FB000C00084FD01C0A8958091C6000895E0E648
:107FC000F0E098E1908380830895EDDF803219F02E
:107FD00088E0F5DFFFCF84E1DECF1F93182FE3DFCA
:107FE0001150E9F7F2DF1F91089580E0E8DFEE27F6
:047FF000FF270994CA
:027FFE00040479
:00000001FF
